{
  "contractName": "kyc",
  "abi": [
    {
      "constant": false,
      "inputs": [
        {
          "name": "Uname",
          "type": "string"
        },
        {
          "name": "bankAddress",
          "type": "address"
        }
      ],
      "name": "ifAllowed",
      "outputs": [
        {
          "name": "",
          "type": "bool"
        }
      ],
      "payable": true,
      "stateMutability": "payable",
      "type": "function"
    },
    {
      "constant": false,
      "inputs": [
        {
          "name": "Uname",
          "type": "string"
        },
        {
          "name": "ind",
          "type": "uint256"
        }
      ],
      "name": "getBankRequests",
      "outputs": [
        {
          "name": "",
          "type": "address"
        }
      ],
      "payable": true,
      "stateMutability": "payable",
      "type": "function"
    },
    {
      "constant": false,
      "inputs": [
        {
          "name": "Uname",
          "type": "string"
        },
        {
          "name": "bankAddress",
          "type": "address"
        }
      ],
      "name": "addRequest",
      "outputs": [],
      "payable": true,
      "stateMutability": "payable",
      "type": "function"
    },
    {
      "constant": false,
      "inputs": [
        {
          "name": "Uname",
          "type": "string"
        },
        {
          "name": "bankAddress",
          "type": "address"
        },
        {
          "name": "ifallowed",
          "type": "bool"
        }
      ],
      "name": "allowBank",
      "outputs": [],
      "payable": true,
      "stateMutability": "payable",
      "type": "function"
    },
    {
      "constant": false,
      "inputs": [],
      "name": "isPartOfOrg",
      "outputs": [
        {
          "name": "",
          "type": "bool"
        }
      ],
      "payable": true,
      "stateMutability": "payable",
      "type": "function"
    },
    {
      "constant": false,
      "inputs": [
        {
          "name": "uname",
          "type": "string"
        },
        {
          "name": "eth",
          "type": "address"
        },
        {
          "name": "regNum",
          "type": "string"
        }
      ],
      "name": "addBank",
      "outputs": [
        {
          "name": "",
          "type": "uint256"
        }
      ],
      "payable": true,
      "stateMutability": "payable",
      "type": "function"
    },
    {
      "constant": false,
      "inputs": [
        {
          "name": "eth",
          "type": "address"
        }
      ],
      "name": "removeBank",
      "outputs": [
        {
          "name": "",
          "type": "uint256"
        }
      ],
      "payable": true,
      "stateMutability": "payable",
      "type": "function"
    },
    {
      "constant": false,
      "inputs": [
        {
          "name": "Uname",
          "type": "string"
        },
        {
          "name": "DataHash",
          "type": "string"
        }
      ],
      "name": "addCustomer",
      "outputs": [
        {
          "name": "",
          "type": "uint256"
        }
      ],
      "payable": true,
      "stateMutability": "payable",
      "type": "function"
    },
    {
      "constant": false,
      "inputs": [
        {
          "name": "Uname",
          "type": "string"
        }
      ],
      "name": "removeCustomer",
      "outputs": [
        {
          "name": "",
          "type": "uint256"
        }
      ],
      "payable": true,
      "stateMutability": "payable",
      "type": "function"
    },
    {
      "constant": false,
      "inputs": [
        {
          "name": "Uname",
          "type": "string"
        },
        {
          "name": "DataHash",
          "type": "string"
        }
      ],
      "name": "modifyCustomer",
      "outputs": [
        {
          "name": "",
          "type": "uint256"
        }
      ],
      "payable": true,
      "stateMutability": "payable",
      "type": "function"
    },
    {
      "constant": false,
      "inputs": [
        {
          "name": "Uname",
          "type": "string"
        }
      ],
      "name": "viewCustomer",
      "outputs": [
        {
          "name": "",
          "type": "string"
        }
      ],
      "payable": true,
      "stateMutability": "payable",
      "type": "function"
    },
    {
      "constant": false,
      "inputs": [
        {
          "name": "Uname",
          "type": "string"
        },
        {
          "name": "ifIncrease",
          "type": "bool"
        }
      ],
      "name": "updateRatingCustomer",
      "outputs": [
        {
          "name": "",
          "type": "uint256"
        }
      ],
      "payable": true,
      "stateMutability": "payable",
      "type": "function"
    },
    {
      "constant": false,
      "inputs": [
        {
          "name": "bankAddress",
          "type": "address"
        },
        {
          "name": "ifAdded",
          "type": "bool"
        }
      ],
      "name": "updateRating",
      "outputs": [
        {
          "name": "",
          "type": "uint256"
        }
      ],
      "payable": true,
      "stateMutability": "payable",
      "type": "function"
    },
    {
      "constant": false,
      "inputs": [
        {
          "name": "Uname",
          "type": "string"
        },
        {
          "name": "password",
          "type": "address"
        }
      ],
      "name": "checkBank",
      "outputs": [
        {
          "name": "",
          "type": "string"
        }
      ],
      "payable": true,
      "stateMutability": "payable",
      "type": "function"
    },
    {
      "constant": false,
      "inputs": [
        {
          "name": "Uname",
          "type": "string"
        },
        {
          "name": "password",
          "type": "string"
        }
      ],
      "name": "checkCustomer",
      "outputs": [
        {
          "name": "",
          "type": "bool"
        }
      ],
      "payable": true,
      "stateMutability": "payable",
      "type": "function"
    },
    {
      "constant": false,
      "inputs": [
        {
          "name": "Uname",
          "type": "string"
        },
        {
          "name": "password",
          "type": "string"
        }
      ],
      "name": "setPassword",
      "outputs": [
        {
          "name": "",
          "type": "bool"
        }
      ],
      "payable": true,
      "stateMutability": "payable",
      "type": "function"
    },
    {
      "constant": false,
      "inputs": [
        {
          "name": "ethAcc",
          "type": "address"
        }
      ],
      "name": "getBankName",
      "outputs": [
        {
          "name": "",
          "type": "string"
        }
      ],
      "payable": true,
      "stateMutability": "payable",
      "type": "function"
    },
    {
      "constant": false,
      "inputs": [
        {
          "name": "uname",
          "type": "string"
        }
      ],
      "name": "getBankEth",
      "outputs": [
        {
          "name": "",
          "type": "address"
        }
      ],
      "payable": true,
      "stateMutability": "payable",
      "type": "function"
    },
    {
      "constant": false,
      "inputs": [
        {
          "name": "Uname",
          "type": "string"
        }
      ],
      "name": "getCustomerBankName",
      "outputs": [
        {
          "name": "",
          "type": "string"
        }
      ],
      "payable": true,
      "stateMutability": "payable",
      "type": "function"
    },
    {
      "constant": false,
      "inputs": [
        {
          "name": "ethAcc",
          "type": "address"
        }
      ],
      "name": "getBankReg",
      "outputs": [
        {
          "name": "",
          "type": "string"
        }
      ],
      "payable": true,
      "stateMutability": "payable",
      "type": "function"
    },
    {
      "constant": false,
      "inputs": [
        {
          "name": "ethAcc",
          "type": "address"
        }
      ],
      "name": "getBankKYC",
      "outputs": [
        {
          "name": "",
          "type": "uint256"
        }
      ],
      "payable": true,
      "stateMutability": "payable",
      "type": "function"
    },
    {
      "constant": false,
      "inputs": [
        {
          "name": "ethAcc",
          "type": "address"
        }
      ],
      "name": "getBankRating",
      "outputs": [
        {
          "name": "",
          "type": "uint256"
        }
      ],
      "payable": true,
      "stateMutability": "payable",
      "type": "function"
    },
    {
      "constant": false,
      "inputs": [
        {
          "name": "Uname",
          "type": "string"
        }
      ],
      "name": "getCustomerBankRating",
      "outputs": [
        {
          "name": "",
          "type": "uint256"
        }
      ],
      "payable": true,
      "stateMutability": "payable",
      "type": "function"
    },
    {
      "constant": false,
      "inputs": [
        {
          "name": "Uname",
          "type": "string"
        }
      ],
      "name": "getCustomerRating",
      "outputs": [
        {
          "name": "",
          "type": "uint256"
        }
      ],
      "payable": true,
      "stateMutability": "payable",
      "type": "function"
    }
  ],
  "bytecode": "0x608060405234801561001057600080fd5b50613c74806100206000396000f3fe608060405260043610610138576000357c01000000000000000000000000000000000000000000000000000000009004806301da7b311461013d578063107925bb146101fa5780631cfb7c9a1461032e5780633190abc01461042157806339b83b68146105875780634b726f611461066e5780634ec2b417146107d85780635b3de1c8146108305780637d2f42c31461092b5780638873704c1461098f5780638eafe0f014610a6a5780639649650c14610b395780639ac3fce614610b91578063b8144a7214610c4e578063bbd4edb114610ca6578063c17d872014610d81578063c71029e114610ed5578063ca38649614610fda578063ccfa8e7114611144578063d06760da146112ca578063e979bac1146112ec578063f72860ca146113bb578063f9dc079314611521578063fc55ea9d14611655575b600080fd5b61017f6004803603602081101561015357600080fd5b81019080803573ffffffffffffffffffffffffffffffffffffffff169060200190929190505050611724565b6040518080602001828103825283818151815260200191508051906020019080838360005b838110156101bf5780820151818401526020810190506101a4565b50505050905090810190601f1680156101ec5780820380516001836020036101000a031916815260200191505b509250505060405180910390f35b6102b36004803603602081101561021057600080fd5b810190808035906020019064010000000081111561022d57600080fd5b82018360208201111561023f57600080fd5b8035906020019184600183028401116401000000008311171561026157600080fd5b91908080601f016020809104026020016040519081016040528093929190818152602001838380828437600081840152601f19601f8201169050808301925050505050505091929192905050506118b8565b6040518080602001828103825283818151815260200191508051906020019080838360005b838110156102f35780820151818401526020810190506102d8565b50505050905090810190601f1680156103205780820380516001836020036101000a031916815260200191505b509250505060405180910390f35b6104076004803603604081101561034457600080fd5b810190808035906020019064010000000081111561036157600080fd5b82018360208201111561037357600080fd5b8035906020019184600183028401116401000000008311171561039557600080fd5b91908080601f016020809104026020016040519081016040528093929190818152602001838380828437600081840152601f19601f820116905080830192505050505050509192919290803573ffffffffffffffffffffffffffffffffffffffff169060200190929190505050611a51565b604051808215151515815260200191505060405180910390f35b6105716004803603604081101561043757600080fd5b810190808035906020019064010000000081111561045457600080fd5b82018360208201111561046657600080fd5b8035906020019184600183028401116401000000008311171561048857600080fd5b91908080601f016020809104026020016040519081016040528093929190818152602001838380828437600081840152601f19601f820116905080830192505050505050509192919290803590602001906401000000008111156104eb57600080fd5b8201836020820111156104fd57600080fd5b8035906020019184600183028401116401000000008311171561051f57600080fd5b91908080601f016020809104026020016040519081016040528093929190818152602001838380828437600081840152601f19601f820116905080830192505050505050509192919290505050611b62565b6040518082815260200191505060405180910390f35b61066c6004803603606081101561059d57600080fd5b81019080803590602001906401000000008111156105ba57600080fd5b8201836020820111156105cc57600080fd5b803590602001918460018302840111640100000000831117156105ee57600080fd5b91908080601f016020809104026020016040519081016040528093929190818152602001838380828437600081840152601f19601f820116905080830192505050505050509192919290803573ffffffffffffffffffffffffffffffffffffffff169060200190929190803515159060200190929190505050611d6a565b005b6107be6004803603604081101561068457600080fd5b81019080803590602001906401000000008111156106a157600080fd5b8201836020820111156106b357600080fd5b803590602001918460018302840111640100000000831117156106d557600080fd5b91908080601f016020809104026020016040519081016040528093929190818152602001838380828437600081840152601f19601f8201169050808301925050505050505091929192908035906020019064010000000081111561073857600080fd5b82018360208201111561074a57600080fd5b8035906020019184600183028401116401000000008311171561076c57600080fd5b91908080601f016020809104026020016040519081016040528093929190818152602001838380828437600081840152601f19601f820116905080830192505050505050509192919290505050611fb2565b604051808215151515815260200191505060405180910390f35b61081a600480360360208110156107ee57600080fd5b81019080803573ffffffffffffffffffffffffffffffffffffffff16906020019092919050505061207f565b6040518082815260200191505060405180910390f35b6108e96004803603602081101561084657600080fd5b810190808035906020019064010000000081111561086357600080fd5b82018360208201111561087557600080fd5b8035906020019184600183028401116401000000008311171561089757600080fd5b91908080601f016020809104026020016040519081016040528093929190818152602001838380828437600081840152601f19601f820116905080830192505050505050509192919290505050612147565b604051808273ffffffffffffffffffffffffffffffffffffffff1673ffffffffffffffffffffffffffffffffffffffff16815260200191505060405180910390f35b6109796004803603604081101561094157600080fd5b81019080803573ffffffffffffffffffffffffffffffffffffffff1690602001909291908035151590602001909291905050506121fc565b6040518082815260200191505060405180910390f35b610a68600480360360408110156109a557600080fd5b81019080803590602001906401000000008111156109c257600080fd5b8201836020820111156109d457600080fd5b803590602001918460018302840111640100000000831117156109f657600080fd5b91908080601f016020809104026020016040519081016040528093929190818152602001838380828437600081840152601f19601f820116905080830192505050505050509192919290803573ffffffffffffffffffffffffffffffffffffffff16906020019092919050505061243a565b005b610b2360048036036020811015610a8057600080fd5b8101908080359060200190640100000000811115610a9d57600080fd5b820183602082011115610aaf57600080fd5b80359060200191846001830284011164010000000083111715610ad157600080fd5b91908080601f016020809104026020016040519081016040528093929190818152602001838380828437600081840152601f19601f8201169050808301925050505050505091929192905050506125ff565b6040518082815260200191505060405180910390f35b610b7b60048036036020811015610b4f57600080fd5b81019080803573ffffffffffffffffffffffffffffffffffffffff169060200190929190505050612681565b6040518082815260200191505060405180910390f35b610bd360048036036020811015610ba757600080fd5b81019080803573ffffffffffffffffffffffffffffffffffffffff169060200190929190505050612883565b6040518080602001828103825283818151815260200191508051906020019080838360005b83811015610c13578082015181840152602081019050610bf8565b50505050905090810190601f168015610c405780820380516001836020036101000a031916815260200191505b509250505060405180910390f35b610c9060048036036020811015610c6457600080fd5b81019080803573ffffffffffffffffffffffffffffffffffffffff169060200190929190505050612a17565b6040518082815260200191505060405180910390f35b610d6b60048036036040811015610cbc57600080fd5b8101908080359060200190640100000000811115610cd957600080fd5b820183602082011115610ceb57600080fd5b80359060200191846001830284011164010000000083111715610d0d57600080fd5b91908080601f016020809104026020016040519081016040528093929190818152602001838380828437600081840152601f19601f820116905080830192505050505050509192919290803515159060200190929190505050612adf565b6040518082815260200191505060405180910390f35b610e5a60048036036040811015610d9757600080fd5b8101908080359060200190640100000000811115610db457600080fd5b820183602082011115610dc657600080fd5b80359060200191846001830284011164010000000083111715610de857600080fd5b91908080601f016020809104026020016040519081016040528093929190818152602001838380828437600081840152601f19601f820116905080830192505050505050509192919290803573ffffffffffffffffffffffffffffffffffffffff169060200190929190505050612d07565b6040518080602001828103825283818151815260200191508051906020019080838360005b83811015610e9a578082015181840152602081019050610e7f565b50505050905090810190601f168015610ec75780820380516001836020036101000a031916815260200191505b509250505060405180910390f35b610f9860048036036040811015610eeb57600080fd5b8101908080359060200190640100000000811115610f0857600080fd5b820183602082011115610f1a57600080fd5b80359060200191846001830284011164010000000083111715610f3c57600080fd5b91908080601f016020809104026020016040519081016040528093929190818152602001838380828437600081840152601f19601f82011690508083019250505050505050919291929080359060200190929190505050612e4a565b604051808273ffffffffffffffffffffffffffffffffffffffff1673ffffffffffffffffffffffffffffffffffffffff16815260200191505060405180910390f35b61112a60048036036040811015610ff057600080fd5b810190808035906020019064010000000081111561100d57600080fd5b82018360208201111561101f57600080fd5b8035906020019184600183028401116401000000008311171561104157600080fd5b91908080601f016020809104026020016040519081016040528093929190818152602001838380828437600081840152601f19601f820116905080830192505050505050509192919290803590602001906401000000008111156110a457600080fd5b8201836020820111156110b657600080fd5b803590602001918460018302840111640100000000831117156110d857600080fd5b91908080601f016020809104026020016040519081016040528093929190818152602001838380828437600081840152601f19601f820116905080830192505050505050509192919290505050612f57565b604051808215151515815260200191505060405180910390f35b6112b46004803603606081101561115a57600080fd5b810190808035906020019064010000000081111561117757600080fd5b82018360208201111561118957600080fd5b803590602001918460018302840111640100000000831117156111ab57600080fd5b91908080601f016020809104026020016040519081016040528093929190818152602001838380828437600081840152601f19601f820116905080830192505050505050509192919290803573ffffffffffffffffffffffffffffffffffffffff1690602001909291908035906020019064010000000081111561122e57600080fd5b82018360208201111561124057600080fd5b8035906020019184600183028401116401000000008311171561126257600080fd5b91908080601f016020809104026020016040519081016040528093929190818152602001838380828437600081840152601f19601f820116905080830192505050505050509192919290505050613056565b6040518082815260200191505060405180910390f35b6112d2613199565b604051808215151515815260200191505060405180910390f35b6113a56004803603602081101561130257600080fd5b810190808035906020019064010000000081111561131f57600080fd5b82018360208201111561133157600080fd5b8035906020019184600183028401116401000000008311171561135357600080fd5b91908080601f016020809104026020016040519081016040528093929190818152602001838380828437600081840152601f19601f820116905080830192505050505050509192919290505050613240565b6040518082815260200191505060405180910390f35b61150b600480360360408110156113d157600080fd5b81019080803590602001906401000000008111156113ee57600080fd5b82018360208201111561140057600080fd5b8035906020019184600183028401116401000000008311171561142257600080fd5b91908080601f016020809104026020016040519081016040528093929190818152602001838380828437600081840152601f19601f8201169050808301925050505050505091929192908035906020019064010000000081111561148557600080fd5b82018360208201111561149757600080fd5b803590602001918460018302840111640100000000831117156114b957600080fd5b91908080601f016020809104026020016040519081016040528093929190818152602001838380828437600081840152601f19601f8201169050808301925050505050505091929192905050506132e6565b6040518082815260200191505060405180910390f35b6115da6004803603602081101561153757600080fd5b810190808035906020019064010000000081111561155457600080fd5b82018360208201111561156657600080fd5b8035906020019184600183028401116401000000008311171561158857600080fd5b91908080601f016020809104026020016040519081016040528093929190818152602001838380828437600081840152601f19601f8201169050808301925050505050505091929192905050506133f5565b6040518080602001828103825283818151815260200191508051906020019080838360005b8381101561161a5780820151818401526020810190506115ff565b50505050905090810190601f1680156116475780820380516001836020036101000a031916815260200191505b509250505060405180910390f35b61170e6004803603602081101561166b57600080fd5b810190808035906020019064010000000081111561168857600080fd5b82018360208201111561169a57600080fd5b803590602001918460018302840111640100000000831117156116bc57600080fd5b91908080601f016020809104026020016040519081016040528093929190818152602001838380828437600081840152601f19601f82011690508083019250505050505050919291929050505061349b565b6040518082815260200191505060405180910390f35b606060008090505b600180549050811015611879578273ffffffffffffffffffffffffffffffffffffffff1660018281548110151561175f57fe5b906000526020600020906005020160010160009054906101000a900473ffffffffffffffffffffffffffffffffffffffff1673ffffffffffffffffffffffffffffffffffffffff16141561186e576001818154811015156117bc57fe5b90600052602060002090600502016000018054600181600116156101000203166002900480601f0160208091040260200160405190810160405280929190818152602001828054600181600116156101000203166002900480156118615780601f1061183657610100808354040283529160200191611861565b820191906000526020600020905b81548152906001019060200180831161184457829003601f168201915b50505050509150506118b3565b80600101905061172c565b506040805190810160405280600481526020017f6e756c6c0000000000000000000000000000000000000000000000000000000081525090505b919050565b60606118c2613199565b1515611905576040805190810160405280600e81526020017f4163636573732064656e696564210000000000000000000000000000000000008152509050611a4c565b60008090505b600080549050811015611a125761194160008281548110151561192a57fe5b9060005260206000209060060201600001846136d1565b15611a075760008181548110151561195557fe5b90600052602060002090600602016001018054600181600116156101000203166002900480601f0160208091040260200160405190810160405280929190818152602001828054600181600116156101000203166002900480156119fa5780601f106119cf576101008083540402835291602001916119fa565b820191906000526020600020905b8154815290600101906020018083116119dd57829003601f168201915b5050505050915050611a4c565b80600101905061190b565b506040805190810160405280601f81526020017f437573746f6d6572206e6f7420666f756e6420696e206461746162617365210081525090505b919050565b600080600090505b600280549050811015611b5657611a8f600282815481101515611a7857fe5b9060005260206000209060020201600001856136d1565b8015611b0657508273ffffffffffffffffffffffffffffffffffffffff16600282815481101515611abc57fe5b906000526020600020906002020160010160009054906101000a900473ffffffffffffffffffffffffffffffffffffffff1673ffffffffffffffffffffffffffffffffffffffff16145b8015611b3c5750600281815481101515611b1c57fe5b906000526020600020906002020160010160149054906101000a900460ff165b15611b4b576001915050611b5c565b806001019050611a59565b50600090505b92915050565b6000611b6c613199565b1515611b7b5760079050611d64565b60008090505b600080549050811015611bd157611bb7600082815481101515611ba057fe5b9060005260206000209060060201600001856136d1565b15611bc6576002915050611d64565b806001019050611b81565b5060008054809190600101611be69190613858565b5060016000805490501015611bfe5760019050611d64565b60c06040519081016040528084815260200183815260200160648152602001600081526020013373ffffffffffffffffffffffffffffffffffffffff1681526020016040805190810160405280600481526020017f6e756c6c000000000000000000000000000000000000000000000000000000008152508152506000600160008054905003815481101515611c9057fe5b90600052602060002090600602016000820151816000019080519060200190611cba92919061388a565b506020820151816001019080519060200190611cd792919061388a565b50604082015181600201556060820151816003015560808201518160040160006101000a81548173ffffffffffffffffffffffffffffffffffffffff021916908373ffffffffffffffffffffffffffffffffffffffff16021790555060a0820151816005019080519060200190611d4f92919061388a565b50905050611d5e3360016121fc565b50600090505b92915050565b60008090505b600280549050811015611fab57611da6600282815481101515611d8f57fe5b9060005260206000209060020201600001856136d1565b8015611e1d57508273ffffffffffffffffffffffffffffffffffffffff16600282815481101515611dd357fe5b906000526020600020906002020160010160009054906101000a900473ffffffffffffffffffffffffffffffffffffffff1673ffffffffffffffffffffffffffffffffffffffff16145b15611fa0578115611e66576001600282815481101515611e3957fe5b906000526020600020906002020160010160146101000a81548160ff021916908315150217905550611f9a565b60008190505b6002808054905003811015611f8257600260018301815481101515611e8d57fe5b9060005260206000209060020201600283815481101515611eaa57fe5b906000526020600020906002020160008201816000019080546001816001161561010002031660029004611edf92919061390a565b506001820160009054906101000a900473ffffffffffffffffffffffffffffffffffffffff168160010160006101000a81548173ffffffffffffffffffffffffffffffffffffffff021916908373ffffffffffffffffffffffffffffffffffffffff1602179055506001820160149054906101000a900460ff168160010160146101000a81548160ff021916908315150217905550905050806001019050611e6c565b506002805480919060019003611f989190613991565b505b50611fad565b806001019050611d70565b505b505050565b600080600090505b60008054905081101561207357611ff0600082815481101515611fd957fe5b9060005260206000209060060201600001856136d1565b8015612021575061202060008281548110151561200957fe5b9060005260206000209060060201600501846136d1565b5b15612030576001915050612079565b61205960008281548110151561204257fe5b9060005260206000209060060201600001856136d1565b15612068576000915050612079565b806001019050611fba565b50600090505b92915050565b600080600090505b60018054905081101561213c578273ffffffffffffffffffffffffffffffffffffffff166001828154811015156120ba57fe5b906000526020600020906005020160010160009054906101000a900473ffffffffffffffffffffffffffffffffffffffff1673ffffffffffffffffffffffffffffffffffffffff1614156121315760018181548110151561211757fe5b906000526020600020906005020160030154915050612142565b806001019050612087565b50600090505b919050565b600080600090505b6001805490508110156121de5761218560018281548110151561216e57fe5b9060005260206000209060050201600001846136d1565b156121d35760018181548110151561219957fe5b906000526020600020906005020160010160009054906101000a900473ffffffffffffffffffffffffffffffffffffffff169150506121f7565b80600101905061214f565b507314e041521a40e32ed88b22c0f32469f5406d757a90505b919050565b600080600090505b60018054905081101561242e578373ffffffffffffffffffffffffffffffffffffffff1660018281548110151561223757fe5b906000526020600020906005020160010160009054906101000a900473ffffffffffffffffffffffffffffffffffffffff1673ffffffffffffffffffffffffffffffffffffffff16141561242357821561236c5760018181548110151561229a57fe5b9060005260206000209060050201600301600081548092919060010191905055506001818154811015156122ca57fe5b90600052602060002090600502016003015460648115156122e757fe5b046001828154811015156122f757fe5b9060005260206000209060050201600201600082825401925050819055506101f460018281548110151561232757fe5b9060005260206000209060050201600201541115612367576101f460018281548110151561235157fe5b9060005260206000209060050201600201819055505b612419565b6001808281548110151561237c57fe5b90600052602060002090600502016003015401606481151561239a57fe5b046001828154811015156123aa57fe5b90600052602060002090600502016002016000828254039250508190555060006001828154811015156123d957fe5b906000526020600020906005020160020154101561241857600060018281548110151561240257fe5b9060005260206000209060050201600201819055505b5b6000915050612434565b806001019050612204565b50600190505b92915050565b60008090505b6002805490508110156125035761247660028281548110151561245f57fe5b9060005260206000209060020201600001846136d1565b80156124ed57508173ffffffffffffffffffffffffffffffffffffffff166002828154811015156124a357fe5b906000526020600020906002020160010160009054906101000a900473ffffffffffffffffffffffffffffffffffffffff1673ffffffffffffffffffffffffffffffffffffffff16145b156124f857506125fb565b806001019050612440565b50600280548091906001016125189190613991565b506060604051908101604052808381526020018273ffffffffffffffffffffffffffffffffffffffff16815260200160001515815250600260016002805490500381548110151561256557fe5b9060005260206000209060020201600082015181600001908051906020019061258f92919061388a565b5060208201518160010160006101000a81548173ffffffffffffffffffffffffffffffffffffffff021916908373ffffffffffffffffffffffffffffffffffffffff16021790555060408201518160010160146101000a81548160ff0219169083151502179055509050505b5050565b600080600090505b6000805490508110156126765761263d60008281548110151561262657fe5b9060005260206000209060060201600001846136d1565b1561266b5760008181548110151561265157fe5b90600052602060002090600602016002015491505061267c565b806001019050612607565b50600090505b919050565b600061268b613199565b151561269a576007905061287e565b60008090505b600180549050811015612878578273ffffffffffffffffffffffffffffffffffffffff166001828154811015156126d357fe5b906000526020600020906005020160010160009054906101000a900473ffffffffffffffffffffffffffffffffffffffff1673ffffffffffffffffffffffffffffffffffffffff16141561286d5760006001820190505b60018054905081101561284c5760018281548110151561274657fe5b9060005260206000209060050201600180840381548110151561276557fe5b90600052602060002090600502016000820181600001908054600181600116156101000203166002900461279a92919061390a565b506001820160009054906101000a900473ffffffffffffffffffffffffffffffffffffffff168160010160006101000a81548173ffffffffffffffffffffffffffffffffffffffff021916908373ffffffffffffffffffffffffffffffffffffffff16021790555060028201548160020155600382015481600301556004820181600401908054600181600116156101000203166002900461283d92919061390a565b5090505080600101905061272a565b50600180548091906001900361286291906139c3565b50600091505061287e565b8060010190506126a0565b50600190505b919050565b606060008090505b6001805490508110156129d8578273ffffffffffffffffffffffffffffffffffffffff166001828154811015156128be57fe5b906000526020600020906005020160010160009054906101000a900473ffffffffffffffffffffffffffffffffffffffff1673ffffffffffffffffffffffffffffffffffffffff1614156129cd5760018181548110151561291b57fe5b90600052602060002090600502016004018054600181600116156101000203166002900480601f0160208091040260200160405190810160405280929190818152602001828054600181600116156101000203166002900480156129c05780601f10612995576101008083540402835291602001916129c0565b820191906000526020600020905b8154815290600101906020018083116129a357829003601f168201915b5050505050915050612a12565b80600101905061288b565b506040805190810160405280600481526020017f6e756c6c0000000000000000000000000000000000000000000000000000000081525090505b919050565b600080600090505b600180549050811015612ad4578273ffffffffffffffffffffffffffffffffffffffff16600182815481101515612a5257fe5b906000526020600020906005020160010160009054906101000a900473ffffffffffffffffffffffffffffffffffffffff1673ffffffffffffffffffffffffffffffffffffffff161415612ac957600181815481101515612aaf57fe5b906000526020600020906005020160020154915050612ada565b806001019050612a1f565b50600090505b919050565b600080600090505b600080549050811015612cfb57612b1d600082815481101515612b0657fe5b9060005260206000209060060201600001856136d1565b15612cf0578215612c0957600081815481101515612b3757fe5b906000526020600020906006020160030160008154809291906001019190505550600081815481101515612b6757fe5b9060005260206000209060060201600301546064811515612b8457fe5b04600082815481101515612b9457fe5b9060005260206000209060060201600201600082825401925050819055506101f4600082815481101515612bc457fe5b9060005260206000209060060201600201541115612c04576101f4600082815481101515612bee57fe5b9060005260206000209060060201600201819055505b612ce6565b600081815481101515612c1857fe5b906000526020600020906006020160030160008154809291906001900391905055506001600082815481101515612c4b57fe5b906000526020600020906006020160030154016064811515612c6957fe5b04600082815481101515612c7957fe5b90600052602060002090600602016002016000828254039250508190555060008082815481101515612ca757fe5b9060005260206000209060060201600201541015612ce55760008082815481101515612ccf57fe5b9060005260206000209060060201600201819055505b5b6000915050612d01565b806001019050612ae7565b50600190505b92915050565b606060008090505b600180549050811015612e0a578273ffffffffffffffffffffffffffffffffffffffff16600182815481101515612d4257fe5b906000526020600020906005020160010160009054906101000a900473ffffffffffffffffffffffffffffffffffffffff1673ffffffffffffffffffffffffffffffffffffffff16148015612dbc5750612dbb600182815481101515612da457fe5b9060005260206000209060050201600001856136d1565b5b15612dff576040805190810160405280600181526020017f3000000000000000000000000000000000000000000000000000000000000000815250915050612e44565b806001019050612d0f565b506040805190810160405280600481526020017f6e756c6c0000000000000000000000000000000000000000000000000000000081525090505b92915050565b6000806000905060008090505b600280549050811015612f3757612e8d600282815481101515612e7657fe5b9060005260206000209060020201600001866136d1565b8015612e9857508382145b8015612ed5575060001515600282815481101515612eb257fe5b906000526020600020906002020160010160149054906101000a900460ff161515145b15612f2457600281815481101515612ee957fe5b906000526020600020906002020160010160009054906101000a900473ffffffffffffffffffffffffffffffffffffffff1692505050612f51565b8180600101925050806001019050612e57565b507314e041521a40e32ed88b22c0f32469f5406d757a9150505b92915050565b600080600090505b60008054905081101561304a57612f95600082815481101515612f7e57fe5b9060005260206000209060060201600001856136d1565b8015612ffb5750612ffa600082815481101515612fae57fe5b90600052602060002090600602016005016040805190810160405280600481526020017f6e756c6c000000000000000000000000000000000000000000000000000000008152506136d1565b5b1561303f578260008281548110151561301057fe5b906000526020600020906006020160050190805190602001906130349291906139f5565b506001915050613050565b806001019050612f5f565b50600090505b92915050565b600080600180549050148061306f575061306e613199565b5b1561318d576001805480919060010161308891906139c3565b5060a0604051908101604052808581526020018473ffffffffffffffffffffffffffffffffffffffff16815260200160c8815260200160008152602001838152506001808080549050038154811015156130de57fe5b9060005260206000209060050201600082015181600001908051906020019061310892919061388a565b5060208201518160010160006101000a81548173ffffffffffffffffffffffffffffffffffffffff021916908373ffffffffffffffffffffffffffffffffffffffff1602179055506040820151816002015560608201518160030155608082015181600401908051906020019061318092919061388a565b5090505060009050613192565b600790505b9392505050565b600080600090505b600180549050811015613237573373ffffffffffffffffffffffffffffffffffffffff166001828154811015156131d457fe5b906000526020600020906005020160010160009054906101000a900473ffffffffffffffffffffffffffffffffffffffff1673ffffffffffffffffffffffffffffffffffffffff16141561322c57600191505061323d565b8060010190506131a1565b50600090505b90565b600080600090505b6000805490508110156132df5761327e60008281548110151561326757fe5b9060005260206000209060060201600001846136d1565b156132d4576132cc60008281548110151561329557fe5b906000526020600020906006020160040160009054906101000a900473ffffffffffffffffffffffffffffffffffffffff16612a17565b9150506132e1565b806001019050613248565b505b919050565b60006132f0613199565b15156132ff57600790506133ef565b60008090505b6000805490508110156133e95761333b60008281548110151561332457fe5b9060005260206000209060060201600001856136d1565b156133de578260008281548110151561335057fe5b906000526020600020906006020160010190805190602001906133749291906139f5565b503360008281548110151561338557fe5b906000526020600020906006020160040160006101000a81548173ffffffffffffffffffffffffffffffffffffffff021916908373ffffffffffffffffffffffffffffffffffffffff16021790555060009150506133ef565b806001019050613305565b50600190505b92915050565b606060008090505b6000805490508110156134945761343360008281548110151561341c57fe5b9060005260206000209060060201600001846136d1565b156134895761348160008281548110151561344a57fe5b906000526020600020906006020160040160009054906101000a900473ffffffffffffffffffffffffffffffffffffffff16611724565b915050613496565b8060010190506133fd565b505b919050565b60006134a5613199565b15156134b457600790506136cc565b60008090505b6000805490508110156136c6576134f06000828154811015156134d957fe5b9060005260206000209060060201600001846136d1565b156136bb576000808281548110151561350557fe5b906000526020600020906006020160040160009054906101000a900473ffffffffffffffffffffffffffffffffffffffff16905060006001830190505b60008054905081101561368d5760008381548110151561355e57fe5b906000526020600020906006020160006001850381548110151561357e57fe5b9060005260206000209060060201600082018160000190805460018160011615610100020316600290046135b392919061390a565b50600182018160010190805460018160011615610100020316600290046135db92919061390a565b5060028201548160020155600382015481600301556004820160009054906101000a900473ffffffffffffffffffffffffffffffffffffffff168160040160006101000a81548173ffffffffffffffffffffffffffffffffffffffff021916908373ffffffffffffffffffffffffffffffffffffffff1602179055506005820181600501908054600181600116156101000203166002900461367e92919061390a565b50905050806001019050613542565b5060008054809190600190036136a39190613858565b506136af8160006121fc565b506000925050506136cc565b8060010190506134ba565b50600190505b919050565b600080839050606083905080518280546001816001161561010002031660029004905014151561370657600092505050613852565b60008090505b8280546001816001161561010002031660029004905081101561384a57818181518110151561373757fe5b9060200101517f010000000000000000000000000000000000000000000000000000000000000090047f0100000000000000000000000000000000000000000000000000000000000000027effffffffffffffffffffffffffffffffffffffffffffffffffffffffffffff1916838281546001816001161561010002031660029004811015156137c357fe5b8154600116156137e25790600052602060002090602091828204019190065b9054901a7f0100000000000000000000000000000000000000000000000000000000000000027effffffffffffffffffffffffffffffffffffffffffffffffffffffffffffff191614151561383d5760009350505050613852565b808060010191505061370c565b506001925050505b92915050565b815481835581811115613885576006028160060283600052602060002091820191016138849190613a75565b5b505050565b828054600181600116156101000203166002900490600052602060002090601f016020900481019282601f106138cb57805160ff19168380011785556138f9565b828001600101855582156138f9579182015b828111156138f85782518255916020019190600101906138dd565b5b5090506139069190613afb565b5090565b828054600181600116156101000203166002900490600052602060002090601f016020900481019282601f106139435780548555613980565b8280016001018555821561398057600052602060002091601f016020900482015b8281111561397f578254825591600101919060010190613964565b5b50905061398d9190613afb565b5090565b8154818355818111156139be576002028160020283600052602060002091820191016139bd9190613b20565b5b505050565b8154818355818111156139f0576005028160050283600052602060002091820191016139ef9190613b8a565b5b505050565b828054600181600116156101000203166002900490600052602060002090601f016020900481019282601f10613a3657805160ff1916838001178555613a64565b82800160010185558215613a64579182015b82811115613a63578251825591602001919060010190613a48565b5b509050613a719190613afb565b5090565b613af891905b80821115613af45760008082016000613a949190613c00565b600182016000613aa49190613c00565b600282016000905560038201600090556004820160006101000a81549073ffffffffffffffffffffffffffffffffffffffff0219169055600582016000613aeb9190613c00565b50600601613a7b565b5090565b90565b613b1d91905b80821115613b19576000816000905550600101613b01565b5090565b90565b613b8791905b80821115613b835760008082016000613b3f9190613c00565b6001820160006101000a81549073ffffffffffffffffffffffffffffffffffffffff02191690556001820160146101000a81549060ff021916905550600201613b26565b5090565b90565b613bfd91905b80821115613bf95760008082016000613ba99190613c00565b6001820160006101000a81549073ffffffffffffffffffffffffffffffffffffffff021916905560028201600090556003820160009055600482016000613bf09190613c00565b50600501613b90565b5090565b90565b50805460018160011615610100020316600290046000825580601f10613c265750613c45565b601f016020900490600052602060002090810190613c449190613afb565b5b5056fea165627a7a72305820bc0dd91e1ae30d3aae247a4474d31b57da64f99bf4dfd08f9606cbb9af73cdb90029",
  "source": "pragma solidity '0.5.1';\r\n\r\ncontract kyc {\r\n\r\n    //  Struct customer\r\n    //  uname - username of the customer\r\n    //  dataHash - customer data\r\n    //  rating - rating given to customer given based on regularity\r\n    //  upvotes - number of upvotes recieved from banks\r\n    //  bank - address of bank that validated the customer account\r\n\r\n    struct Customer {\r\n        string uname;\r\n        string dataHash;\r\n        uint rating;\r\n        uint upvotes;\r\n        address bank;\r\n        string password;\r\n    }\r\n\r\n    //  Struct Organisation\r\n    //  name - name of the bank/organisation\r\n    //  ethAddress - ethereum address of the bank/organisation\r\n    //  rating - rating based on number of valid/invalid verified accounts\r\n    //  KYC_count - number of KYCs verified by the bank/organisation\r\n\r\n    struct Organisation {\r\n        string name;\r\n        address ethAddress;\r\n        uint rating;\r\n        uint KYC_count;\r\n        string regNumber;\r\n    }\r\n\r\n    struct Request {\r\n        string uname;\r\n        address bankAddress;\r\n        bool isAllowed;\r\n    }\r\n\r\n    //  list of all customers\r\n\r\n    Customer[] allCustomers;\r\n\r\n    //  list of all Banks/Organisations\r\n\r\n    Organisation[] allOrgs;\r\n\r\n\r\n    Request[] allRequests;\r\n\r\n    function ifAllowed(string memory Uname, address bankAddress) public payable returns(bool) {\r\n        for(uint i = 0; i < allRequests.length; ++i) {\r\n            if(stringsEqual(allRequests[i].uname, Uname) && allRequests[i].bankAddress == bankAddress && allRequests[i].isAllowed) {\r\n                return true;\r\n            }\r\n        }\r\n        return false;\r\n    }\r\n\r\n    function getBankRequests(string memory Uname, uint ind) public payable returns(address) {\r\n        uint j = 0;\r\n        for(uint i=0;i<allRequests.length;++i) {\r\n            if(stringsEqual(allRequests[i].uname, Uname) && j == ind && allRequests[i].isAllowed == false) {\r\n                return allRequests[i].bankAddress;\r\n            }\r\n            j ++;\r\n        }\r\n        return 0x14E041521a40e32ED88b22C0F32469F5406d757A;\r\n    }\r\n\r\n    function addRequest(string memory Uname, address bankAddress) public payable {\r\n        for(uint i = 0; i < allRequests.length; ++ i) {\r\n            if(stringsEqual(allRequests[i].uname, Uname) && allRequests[i].bankAddress == bankAddress) {\r\n                return;\r\n            }\r\n        }\r\n        allRequests.length ++;\r\n        allRequests[allRequests.length - 1] = Request(Uname, bankAddress, false);\r\n    }\r\n\r\n    function allowBank(string memory Uname, address bankAddress, bool ifallowed) public payable {\r\n        for(uint i = 0; i < allRequests.length; ++ i) {\r\n            if(stringsEqual(allRequests[i].uname, Uname) && allRequests[i].bankAddress == bankAddress) {\r\n                if(ifallowed) {\r\n                    allRequests[i].isAllowed = true;\r\n                } else {\r\n                    for(uint j=i;j<allRequests.length-2; ++j) {\r\n                        allRequests[i] = allRequests[i+1];\r\n                    }\r\n                    allRequests.length --;\r\n                }\r\n                return;\r\n            }\r\n        }\r\n    }\r\n\r\n    //   internal function to compare strings\r\n    \r\n    function stringsEqual(string storage _a, string memory _b) internal returns (bool) {\r\n\t\tbytes storage a = bytes(_a);\r\n\t\tbytes memory b = bytes(_b);\r\n\t\tif (a.length != b.length)\r\n\t\t\treturn false;\r\n\t\t// @todo unroll this loop\r\n\t\tfor (uint i = 0; i < a.length; i ++)\r\n        {\r\n\t\t\tif (a[i] != b[i])\r\n\t\t\t\treturn false;\r\n        }\r\n\t\treturn true;\r\n\t}\r\n\r\n    //  function to check access rights of transaction request sender\r\n\r\n    function isPartOfOrg() public payable returns(bool) {\r\n        for(uint i = 0; i < allOrgs.length; ++ i) {\r\n            if(allOrgs[i].ethAddress == msg.sender)\r\n                return true;\r\n        }\r\n        return false;\r\n    }\r\n\r\n    //  function that adds an organisation to the network\r\n    //  returns 0 if successfull\r\n    //  returns 7 if no access rights to transaction request sender\r\n    //  no check on access rights if network strength in zero\r\n\r\n    function addBank(string memory uname, address eth, string memory regNum) public payable returns(uint) {\r\n        if(allOrgs.length == 0 || isPartOfOrg()) {\r\n            allOrgs.length ++;\r\n            allOrgs[allOrgs.length - 1] = Organisation(uname, eth, 200, 0, regNum);\r\n            return 0;\r\n        }\r\n\r\n        return 7;\r\n    }\r\n\r\n    //  function that removes an organisation from the network\r\n    //  returns 0 if successful\r\n    //  returns 7 if no access rights to transaction request sender\r\n    //  returns 1 if organisation to be removed not part of network\r\n\r\n    function removeBank(address eth) public payable returns(uint) {\r\n        if(!isPartOfOrg())\r\n            return 7;\r\n        for(uint i = 0; i < allOrgs.length; ++ i) {\r\n            if(allOrgs[i].ethAddress == eth) {\r\n                for(uint j = i+1;j < allOrgs.length; ++ j) {\r\n                    allOrgs[i-1] = allOrgs[i];\r\n                }\r\n                allOrgs.length --;\r\n                return 0;\r\n            }\r\n        }\r\n        return 1;\r\n    }\r\n\r\n    //  function to add a customer profile to the database\r\n    //  returns 0 if successful\r\n    //  returns 7 if no access rights to transaction request sender\r\n    //  returns 1 if size limit of the database is reached\r\n    //  returns 2 if customer already in network\r\n\r\n    function addCustomer(string memory Uname, string memory DataHash) public payable returns(uint) {\r\n        if(!isPartOfOrg())\r\n            return 7;\r\n        //  throw error if username already in use\r\n        for(uint i = 0;i < allCustomers.length; ++ i) {\r\n            if(stringsEqual(allCustomers[i].uname, Uname))\r\n                return 2;\r\n        }\r\n        allCustomers.length ++;\r\n        //  throw error if there is overflow in uint\r\n        if(allCustomers.length < 1)\r\n            return 1;\r\n        allCustomers[allCustomers.length-1] = Customer(Uname, DataHash, 100, 0, msg.sender, \"null\");\r\n        updateRating(msg.sender,true);\r\n        return 0;\r\n    }\r\n\r\n    //  function to remove fraudulent customer profile from the database\r\n    //  returns 0 if successful\r\n    //  returns 7 if no access rights to transaction request sender\r\n    //  returns 1 if customer profile not in database\r\n\r\n    function removeCustomer(string memory Uname) public payable returns(uint) {\r\n        if(!isPartOfOrg())\r\n            return 7;\r\n        for(uint i = 0; i < allCustomers.length; ++ i) {\r\n            if(stringsEqual(allCustomers[i].uname, Uname)) {\r\n                address a = allCustomers[i].bank;\r\n                for(uint j = i+1;j < allCustomers.length; ++ j) {\r\n                    allCustomers[i-1] = allCustomers[i];\r\n                }\r\n                allCustomers.length --;\r\n                updateRating(a,false);\r\n                //  updateRating(msg.sender, true);\r\n                return 0;\r\n            }\r\n        }\r\n        //  throw error if uname not found\r\n        return 1;\r\n    }\r\n\r\n    //  function to modify a customer profile in database\r\n    //  returns 0 if successful\r\n    //  returns 7 if no access rights to transaction request sender\r\n    //  returns 1 if customer profile not in database\r\n\r\n    function modifyCustomer(string memory Uname,string memory DataHash) public payable returns(uint) {\r\n        if(!isPartOfOrg())\r\n            return 7;\r\n        for(uint i = 0; i < allCustomers.length; ++ i) {\r\n            if(stringsEqual(allCustomers[i].uname, Uname)) {\r\n                allCustomers[i].dataHash = DataHash;\r\n                allCustomers[i].bank = msg.sender;\r\n                return 0;\r\n            }\r\n        }\r\n        //  throw error if uname not found\r\n        return 1;\r\n    }\r\n\r\n    // function to return customer profile data\r\n\r\n    function viewCustomer(string memory Uname) public payable returns(string memory) {\r\n        if(!isPartOfOrg())\r\n            return \"Access denied!\";\r\n        for(uint i = 0; i < allCustomers.length; ++ i) {\r\n            if(stringsEqual(allCustomers[i].uname, Uname)) {\r\n                return allCustomers[i].dataHash;\r\n            }\r\n        }\r\n        return \"Customer not found in database!\";\r\n    }\r\n\r\n    //  function to modify customer rating\r\n\r\n    function updateRatingCustomer(string memory Uname, bool ifIncrease) public payable returns(uint) {\r\n        for(uint i = 0; i < allCustomers.length; ++ i) {\r\n            if(stringsEqual(allCustomers[i].uname, Uname)) {\r\n                //update rating\r\n                if(ifIncrease) {\r\n                    allCustomers[i].upvotes ++;\r\n                    allCustomers[i].rating += 100/(allCustomers[i].upvotes);\r\n                    if(allCustomers[i].rating > 500) {\r\n                        allCustomers[i].rating = 500;\r\n                    }\r\n                }\r\n                else {\r\n                    allCustomers[i].upvotes --;\r\n                    allCustomers[i].rating -= 100/(allCustomers[i].upvotes + 1);\r\n                    if(allCustomers[i].rating < 0) {\r\n                        allCustomers[i].rating = 0;\r\n                    }\r\n                }\r\n                return 0;\r\n            }\r\n        }\r\n        //  throw error if bank not found\r\n        return 1;\r\n    }\r\n\r\n    //  function to update organisation rating\r\n    //  bool true indicates a succesfull addition of KYC profile\r\n    //  false indicates detection of a fraudulent profile\r\n\r\n    function updateRating(address bankAddress,bool ifAdded) public payable returns(uint) {\r\n        for(uint i = 0; i < allOrgs.length; ++ i) {\r\n            if(allOrgs[i].ethAddress == bankAddress) {\r\n                //update rating\r\n                if(ifAdded) {\r\n                    allOrgs[i].KYC_count ++;\r\n                    allOrgs[i].rating += 100/(allOrgs[i].KYC_count);\r\n                    if(allOrgs[i].rating > 500) {\r\n                        allOrgs[i].rating = 500;\r\n                    }\r\n                }\r\n                else {\r\n                    //  allOrgs[i].KYC_count --;\r\n                    allOrgs[i].rating -= 100/(allOrgs[i].KYC_count + 1);\r\n                    if(allOrgs[i].rating < 0) {\r\n                        allOrgs[i].rating = 0;\r\n                    }\r\n                }\r\n                return 0;\r\n            }\r\n        }\r\n        //  throw error if bank not found\r\n        return 1;\r\n    }\r\n\r\n    //  function to validate bank log in\r\n    //  returns null if username or password not correct\r\n    //  returns bank name if correct\r\n    function checkBank(string memory Uname, address password) public payable returns(string memory) {\r\n        for(uint i = 0; i < allOrgs.length; ++ i) {\r\n            if(allOrgs[i].ethAddress == password && stringsEqual(allOrgs[i].name, Uname)) {\r\n                return \"0\";\r\n            }\r\n        }\r\n        return \"null\";\r\n    }\r\n\r\n    function checkCustomer(string memory Uname, string memory password) public payable returns(bool) {\r\n        for(uint i = 0; i < allCustomers.length; ++ i) {\r\n            if(stringsEqual(allCustomers[i].uname, Uname) && stringsEqual(allCustomers[i].password, password)) {\r\n                return true;\r\n            }\r\n            if(stringsEqual(allCustomers[i].uname, Uname)) {\r\n                return false;\r\n            }\r\n        }\r\n        return false;\r\n    }\r\n\r\n    function setPassword(string memory Uname, string memory password) public payable returns(bool) {\r\n        for(uint i=0;i < allCustomers.length; ++ i) {\r\n            if(stringsEqual(allCustomers[i].uname, Uname) && stringsEqual(allCustomers[i].password, \"null\")) {\r\n                allCustomers[i].password = password;\r\n                return true;\r\n            }\r\n        }\r\n        return false;\r\n    }\r\n\r\n    // All getter functions\r\n\r\n    function getBankName(address ethAcc) public payable returns(string memory) {\r\n        for(uint i = 0; i < allOrgs.length; ++ i) {\r\n            if(allOrgs[i].ethAddress == ethAcc) {\r\n                return allOrgs[i].name;\r\n            }\r\n        }\r\n        return \"null\";\r\n    }\r\n\r\n    function getBankEth(string memory uname) public payable returns(address) {\r\n        for(uint i = 0; i < allOrgs.length; ++ i) {\r\n            if(stringsEqual(allOrgs[i].name, uname)) {\r\n                return allOrgs[i].ethAddress;\r\n            }\r\n        }\r\n        return 0x14E041521a40e32ED88b22C0F32469F5406d757A;\r\n    }\r\n\r\n    function getCustomerBankName(string memory Uname) public payable returns(string memory) {\r\n        for(uint i = 0;i < allCustomers.length; ++ i) {\r\n            if(stringsEqual(allCustomers[i].uname, Uname)) {\r\n                return getBankName(allCustomers[i].bank);\r\n            }\r\n        }\r\n    }\r\n\r\n    function getBankReg(address ethAcc) public payable returns(string memory) {\r\n        for(uint i = 0; i < allOrgs.length; ++ i) {\r\n            if(allOrgs[i].ethAddress == ethAcc) {\r\n                return allOrgs[i].regNumber;\r\n            }\r\n        }\r\n        return \"null\";\r\n    }\r\n\r\n    function getBankKYC(address ethAcc) public payable returns(uint) {\r\n        for(uint i = 0; i < allOrgs.length; ++ i) {\r\n            if(allOrgs[i].ethAddress == ethAcc) {\r\n                return allOrgs[i].KYC_count;\r\n            }\r\n        }\r\n        return 0;\r\n    }\r\n\r\n    function getBankRating(address ethAcc) public payable returns(uint) {\r\n        for(uint i = 0; i < allOrgs.length; ++ i) {\r\n            if(allOrgs[i].ethAddress == ethAcc) {\r\n                return allOrgs[i].rating;\r\n            }\r\n        }\r\n        return 0;\r\n    }\r\n\r\n    function getCustomerBankRating(string memory Uname) public payable returns(uint) {\r\n        for(uint i = 0;i < allCustomers.length; ++ i) {\r\n            if(stringsEqual(allCustomers[i].uname, Uname)) {\r\n                return getBankRating(allCustomers[i].bank);\r\n            }\r\n        }\r\n    }\r\n\r\n    function getCustomerRating(string memory Uname) public payable returns(uint) {\r\n        for(uint i = 0; i < allCustomers.length; ++ i) {\r\n            if(stringsEqual(allCustomers[i].uname, Uname)) {\r\n                return allCustomers[i].rating;\r\n            }\r\n        }\r\n        return 0;\r\n    }\r\n\r\n}",
  "sourcePath": "C:/Users/sanat/Documents/GitHub/UpgradKYCProject/contracts/KYC.sol",
  "compiler": {
    "name": "solc",
    "version": "0.5.1+commit.c8a2cb62.Emscripten.clang"
  },
  "schemaVersion": "3.3.4",
  "updatedAt": "2021-04-12T21:22:44.595Z",
  "networkType": "ethereum",
  "devdoc": {
    "methods": {}
  },
  "userdoc": {
    "methods": {}
  }
}